{
  "contractName": "CampusCoin",
  "abi": [
    {
      "inputs": [],
      "stateMutability": "nonpayable",
      "type": "constructor"
    },
    {
      "anonymous": false,
      "inputs": [
        {
          "indexed": true,
          "internalType": "address",
          "name": "to",
          "type": "address"
        },
        {
          "indexed": false,
          "internalType": "uint256",
          "name": "value",
          "type": "uint256"
        }
      ],
      "name": "Mint",
      "type": "event"
    },
    {
      "anonymous": false,
      "inputs": [
        {
          "indexed": true,
          "internalType": "address",
          "name": "student",
          "type": "address"
        },
        {
          "indexed": true,
          "internalType": "address",
          "name": "canteen",
          "type": "address"
        },
        {
          "indexed": false,
          "internalType": "uint256",
          "name": "value",
          "type": "uint256"
        }
      ],
      "name": "Redeem",
      "type": "event"
    },
    {
      "anonymous": false,
      "inputs": [
        {
          "indexed": true,
          "internalType": "address",
          "name": "organizer",
          "type": "address"
        },
        {
          "indexed": true,
          "internalType": "address",
          "name": "student",
          "type": "address"
        },
        {
          "indexed": false,
          "internalType": "uint256",
          "name": "value",
          "type": "uint256"
        },
        {
          "indexed": false,
          "internalType": "string",
          "name": "reason",
          "type": "string"
        }
      ],
      "name": "Reward",
      "type": "event"
    },
    {
      "anonymous": false,
      "inputs": [
        {
          "indexed": true,
          "internalType": "address",
          "name": "student",
          "type": "address"
        },
        {
          "indexed": false,
          "internalType": "uint256",
          "name": "value",
          "type": "uint256"
        },
        {
          "indexed": false,
          "internalType": "string",
          "name": "reason",
          "type": "string"
        }
      ],
      "name": "Slash",
      "type": "event"
    },
    {
      "anonymous": false,
      "inputs": [
        {
          "indexed": true,
          "internalType": "address",
          "name": "from",
          "type": "address"
        },
        {
          "indexed": true,
          "internalType": "address",
          "name": "to",
          "type": "address"
        },
        {
          "indexed": false,
          "internalType": "uint256",
          "name": "value",
          "type": "uint256"
        }
      ],
      "name": "Transfer",
      "type": "event"
    },
    {
      "inputs": [],
      "name": "admin",
      "outputs": [
        {
          "internalType": "address",
          "name": "",
          "type": "address"
        }
      ],
      "stateMutability": "view",
      "type": "function",
      "constant": true
    },
    {
      "inputs": [
        {
          "internalType": "address",
          "name": "",
          "type": "address"
        }
      ],
      "name": "balanceOf",
      "outputs": [
        {
          "internalType": "uint256",
          "name": "",
          "type": "uint256"
        }
      ],
      "stateMutability": "view",
      "type": "function",
      "constant": true
    },
    {
      "inputs": [],
      "name": "decimals",
      "outputs": [
        {
          "internalType": "uint8",
          "name": "",
          "type": "uint8"
        }
      ],
      "stateMutability": "view",
      "type": "function",
      "constant": true
    },
    {
      "inputs": [
        {
          "internalType": "address",
          "name": "",
          "type": "address"
        }
      ],
      "name": "isCanteenStaff",
      "outputs": [
        {
          "internalType": "bool",
          "name": "",
          "type": "bool"
        }
      ],
      "stateMutability": "view",
      "type": "function",
      "constant": true
    },
    {
      "inputs": [
        {
          "internalType": "address",
          "name": "",
          "type": "address"
        }
      ],
      "name": "isOrganizer",
      "outputs": [
        {
          "internalType": "bool",
          "name": "",
          "type": "bool"
        }
      ],
      "stateMutability": "view",
      "type": "function",
      "constant": true
    },
    {
      "inputs": [],
      "name": "name",
      "outputs": [
        {
          "internalType": "string",
          "name": "",
          "type": "string"
        }
      ],
      "stateMutability": "view",
      "type": "function",
      "constant": true
    },
    {
      "inputs": [],
      "name": "symbol",
      "outputs": [
        {
          "internalType": "string",
          "name": "",
          "type": "string"
        }
      ],
      "stateMutability": "view",
      "type": "function",
      "constant": true
    },
    {
      "inputs": [],
      "name": "totalSupply",
      "outputs": [
        {
          "internalType": "uint256",
          "name": "",
          "type": "uint256"
        }
      ],
      "stateMutability": "view",
      "type": "function",
      "constant": true
    },
    {
      "inputs": [
        {
          "internalType": "address",
          "name": "_organizer",
          "type": "address"
        },
        {
          "internalType": "bool",
          "name": "_status",
          "type": "bool"
        }
      ],
      "name": "setOrganizer",
      "outputs": [],
      "stateMutability": "nonpayable",
      "type": "function"
    },
    {
      "inputs": [
        {
          "internalType": "address",
          "name": "_staff",
          "type": "address"
        },
        {
          "internalType": "bool",
          "name": "_status",
          "type": "bool"
        }
      ],
      "name": "setCanteenStaff",
      "outputs": [],
      "stateMutability": "nonpayable",
      "type": "function"
    },
    {
      "inputs": [
        {
          "internalType": "address",
          "name": "_to",
          "type": "address"
        },
        {
          "internalType": "uint256",
          "name": "_amount",
          "type": "uint256"
        }
      ],
      "name": "mint",
      "outputs": [],
      "stateMutability": "nonpayable",
      "type": "function"
    },
    {
      "inputs": [
        {
          "internalType": "address",
          "name": "_student",
          "type": "address"
        },
        {
          "internalType": "uint256",
          "name": "_amount",
          "type": "uint256"
        },
        {
          "internalType": "string",
          "name": "_reason",
          "type": "string"
        }
      ],
      "name": "rewardStudent",
      "outputs": [],
      "stateMutability": "nonpayable",
      "type": "function"
    },
    {
      "inputs": [
        {
          "internalType": "address",
          "name": "_student",
          "type": "address"
        },
        {
          "internalType": "uint256",
          "name": "_amount",
          "type": "uint256"
        }
      ],
      "name": "redeemTokens",
      "outputs": [],
      "stateMutability": "nonpayable",
      "type": "function"
    },
    {
      "inputs": [
        {
          "internalType": "address",
          "name": "_student",
          "type": "address"
        },
        {
          "internalType": "uint256",
          "name": "_amount",
          "type": "uint256"
        },
        {
          "internalType": "string",
          "name": "_reason",
          "type": "string"
        }
      ],
      "name": "slashTokens",
      "outputs": [],
      "stateMutability": "nonpayable",
      "type": "function"
    },
    {
      "inputs": [
        {
          "internalType": "address",
          "name": "_to",
          "type": "address"
        },
        {
          "internalType": "uint256",
          "name": "_amount",
          "type": "uint256"
        }
      ],
      "name": "transfer",
      "outputs": [
        {
          "internalType": "bool",
          "name": "",
          "type": "bool"
        }
      ],
      "stateMutability": "nonpayable",
      "type": "function"
    }
  ],
  "bytecode": "0x60c0604052600a60808190526921b0b6b83ab9a1b7b4b760b11b60a09081526200002d91600091906200008f565b5060408051808201909152600280825261434360f01b602090920191825262000059916001916200008f565b506002805460ff1916905560006003553480156200007657600080fd5b50600480546001600160a01b0319163317905562000172565b8280546200009d9062000135565b90600052602060002090601f016020900481019282620000c157600085556200010c565b82601f10620000dc57805160ff19168380011785556200010c565b828001600101855582156200010c579182015b828111156200010c578251825591602001919060010190620000ef565b506200011a9291506200011e565b5090565b5b808211156200011a57600081556001016200011f565b6002810460018216806200014a57607f821691505b602082108114156200016c57634e487b7160e01b600052602260045260246000fd5b50919050565b610e4980620001826000396000f3fe608060405234801561001057600080fd5b50600436106100f55760003560e01c806370a0823111610097578063b69bee5411610066578063b69bee54146101de578063b9c64d46146101f1578063dad7f11014610204578063f851a44014610217576100f5565b806370a082311461019d57806395d89b41146101b0578063a0f04113146101b8578063a9059cbb146101cb576100f5565b8063313ce567116100d3578063313ce567146101425780633a1896741461015757806340c10f191461016a57806341676f151461017d576100f5565b8063028a231d146100fa57806306fdde031461010f57806318160ddd1461012d575b600080fd5b61010d610108366004610a12565b61022c565b005b610117610361565b6040516101249190610b39565b60405180910390f35b6101356103ef565b6040516101249190610d25565b61014a6103f5565b6040516101249190610d4f565b61010d6101653660046109af565b6103fe565b61010d6101783660046109e9565b610453565b61019061018b36600461098e565b610544565b6040516101249190610b2e565b6101356101ab36600461098e565b610559565b61011761056b565b6101906101c636600461098e565b610578565b6101906101d93660046109e9565b61058d565b61010d6101ec366004610a12565b610649565b61010d6101ff3660046109af565b6107cb565b61010d6102123660046109e9565b610820565b61021f610963565b6040516101249190610b1a565b6004546001600160a01b0316331461025f5760405162461bcd60e51b815260040161025690610cae565b60405180910390fd5b6001600160a01b0383166000908152600560205260409020548211156102975760405162461bcd60e51b815260040161025690610cf0565b6001600160a01b038316600090815260056020526040812080548492906102bf908490610d75565b9250508190555081600360008282546102d89190610d75565b92505081905550826001600160a01b03167fcaf4f872fc68208728948f10d9c30931d9353ef8bbaea8926ed05ddd9e088cf2838360405161031a929190610d2e565b60405180910390a260006001600160a01b0316836001600160a01b0316600080516020610df4833981519152846040516103549190610d25565b60405180910390a3505050565b6000805461036e90610d8c565b80601f016020809104026020016040519081016040528092919081815260200182805461039a90610d8c565b80156103e75780601f106103bc576101008083540402835291602001916103e7565b820191906000526020600020905b8154815290600101906020018083116103ca57829003601f168201915b505050505081565b60035481565b60025460ff1681565b6004546001600160a01b031633146104285760405162461bcd60e51b815260040161025690610cae565b6001600160a01b03919091166000908152600660205260409020805460ff1916911515919091179055565b6004546001600160a01b0316331461047d5760405162461bcd60e51b815260040161025690610cae565b6001600160a01b038216600090815260056020526040812080548392906104a5908490610d5d565b9250508190555080600360008282546104be9190610d5d565b92505081905550816001600160a01b03167f0f6798a560793a54c3bcfe86a93cde1e73087d944c0ea20544137d4121396885826040516104fe9190610d25565b60405180910390a2816001600160a01b031660006001600160a01b0316600080516020610df4833981519152836040516105389190610d25565b60405180910390a35050565b60066020526000908152604090205460ff1681565b60056020526000908152604090205481565b6001805461036e90610d8c565b60076020526000908152604090205460ff1681565b336000908152600560205260408120548211156105bc5760405162461bcd60e51b815260040161025690610c02565b33600090815260056020526040812080548492906105db908490610d75565b90915550506001600160a01b03831660009081526005602052604081208054849290610608908490610d5d565b90915550506040516001600160a01b038416903390600080516020610df483398151915290610638908690610d25565b60405180910390a350600192915050565b3360009081526006602052604090205460ff168061067157506004546001600160a01b031633145b61068d5760405162461bcd60e51b815260040161025690610c67565b6001600160a01b0383166106b35760405162461bcd60e51b815260040161025690610bcb565b600082116106d35760405162461bcd60e51b815260040161025690610b96565b336000908152600560205260409020548211156107025760405162461bcd60e51b815260040161025690610c30565b3360009081526005602052604081208054849290610721908490610d75565b90915550506001600160a01b0383166000908152600560205260408120805484929061074e908490610d5d565b90915550506040516001600160a01b0384169033907fe14c30c630ca97ba5b9006a3d372f7af4e28c2e2bee562216f85a691af83396d906107929086908690610d2e565b60405180910390a3826001600160a01b0316336001600160a01b0316600080516020610df4833981519152846040516103549190610d25565b6004546001600160a01b031633146107f55760405162461bcd60e51b815260040161025690610cae565b6001600160a01b03919091166000908152600760205260409020805460ff1916911515919091179055565b3360009081526007602052604090205460ff168061084857506004546001600160a01b031633145b6108645760405162461bcd60e51b815260040161025690610b4c565b6001600160a01b03821660009081526005602052604090205481111561089c5760405162461bcd60e51b815260040161025690610cf0565b6001600160a01b038216600090815260056020526040812080548392906108c4908490610d75565b909155505033600090815260056020526040812080548392906108e8908490610d5d565b909155505060405133906001600160a01b038416907fd12200efa34901b99367694174c3b0d32c99585fdf37c7c26892136ddd0836d99061092a908590610d25565b60405180910390a3336001600160a01b0316826001600160a01b0316600080516020610df4833981519152836040516105389190610d25565b6004546001600160a01b031681565b80356001600160a01b038116811461098957600080fd5b919050565b60006020828403121561099f578081fd5b6109a882610972565b9392505050565b600080604083850312156109c1578081fd5b6109ca83610972565b9150602083013580151581146109de578182fd5b809150509250929050565b600080604083850312156109fb578182fd5b610a0483610972565b946020939093013593505050565b600080600060608486031215610a26578081fd5b610a2f84610972565b92506020808501359250604085013567ffffffffffffffff80821115610a53578384fd5b818701915087601f830112610a66578384fd5b813581811115610a7857610a78610ddd565b604051601f8201601f1916810185018381118282101715610a9b57610a9b610ddd565b60405281815283820185018a1015610ab1578586fd5b81858501868301378585838301015280955050505050509250925092565b60008151808452815b81811015610af457602081850181015186830182015201610ad8565b81811115610b055782602083870101525b50601f01601f19169290920160200192915050565b6001600160a01b0391909116815260200190565b901515815260200190565b6000602082526109a86020830184610acf565b6020808252602a908201527f4f6e6c792063616e7465656e2073746166662063616e20706572666f726d20746040820152693434b99030b1ba34b7b760b11b606082015260800190565b6020808252818101527f416d6f756e74206d7573742062652067726561746572207468616e207a65726f604082015260600190565b60208082526017908201527f496e76616c69642073747564656e742061646472657373000000000000000000604082015260600190565b602080825260149082015273496e73756666696369656e742062616c616e636560601b604082015260600190565b6020808252601e908201527f496e73756666696369656e742062616c616e636520746f207265776172640000604082015260600190565b60208082526027908201527f4f6e6c79206f7267616e697a6572732063616e20706572666f726d20746869736040820152661030b1ba34b7b760c91b606082015260800190565b60208082526022908201527f4f6e6c792061646d696e2063616e20706572666f726d2074686973206163746960408201526137b760f11b606082015260800190565b6020808252818101527f53747564656e742068617320696e73756666696369656e742062616c616e6365604082015260600190565b90815260200190565b600083825260406020830152610d476040830184610acf565b949350505050565b60ff91909116815260200190565b60008219821115610d7057610d70610dc7565b500190565b600082821015610d8757610d87610dc7565b500390565b600281046001821680610da057607f821691505b60208210811415610dc157634e487b7160e01b600052602260045260246000fd5b50919050565b634e487b7160e01b600052601160045260246000fd5b634e487b7160e01b600052604160045260246000fdfeddf252ad1be2c89b69c2b068fc378daa952ba7f163c4a11628f55a4df523b3efa2646970667358221220671e58209c99c8345fa62ea33039ed0ef286e01a022d19676d44f6950c7d14b864736f6c63430008000033",
  "immutableReferences": {},
  "source": "// SPDX-License-Identifier: MIT\r\npragma solidity ^0.8.0;\r\n\r\ncontract CampusCoin {\r\n    string public name = \"CampusCoin\";\r\n    string public symbol = \"CC\";\r\n    uint8 public decimals = 0;\r\n    uint256 public totalSupply = 0;\r\n    \r\n    address public admin;\r\n    mapping(address => uint256) public balanceOf;\r\n    mapping(address => bool) public isOrganizer;\r\n    mapping(address => bool) public isCanteenStaff;\r\n    \r\n    event Transfer(address indexed from, address indexed to, uint256 value);\r\n    event Mint(address indexed to, uint256 value);\r\n    event Reward(address indexed organizer, address indexed student, uint256 value, string reason);\r\n    event Redeem(address indexed student, address indexed canteen, uint256 value);\r\n    event Slash(address indexed student, uint256 value, string reason);\r\n    \r\n    constructor() {\r\n        admin = msg.sender;\r\n    }\r\n    \r\n    modifier onlyAdmin() {\r\n        require(msg.sender == admin, \"Only admin can perform this action\");\r\n        _;\r\n    }\r\n    \r\n    modifier onlyOrganizer() {\r\n        require(isOrganizer[msg.sender] || msg.sender == admin, \"Only organizers can perform this action\");\r\n        _;\r\n    }\r\n    \r\n    modifier onlyCanteen() {\r\n        require(isCanteenStaff[msg.sender] || msg.sender == admin, \"Only canteen staff can perform this action\");\r\n        _;\r\n    }\r\n    \r\n    function setOrganizer(address _organizer, bool _status) external onlyAdmin {\r\n        isOrganizer[_organizer] = _status;\r\n    }\r\n    \r\n    function setCanteenStaff(address _staff, bool _status) external onlyAdmin {\r\n        isCanteenStaff[_staff] = _status;\r\n    }\r\n    \r\n    function mint(address _to, uint256 _amount) external onlyAdmin {\r\n        balanceOf[_to] += _amount;\r\n        totalSupply += _amount;\r\n        emit Mint(_to, _amount);\r\n        emit Transfer(address(0), _to, _amount);\r\n    }\r\n    \r\n    function rewardStudent(address _student, uint256 _amount, string memory _reason) external onlyOrganizer {\r\n        require(_student != address(0), \"Invalid student address\");\r\n        require(_amount > 0, \"Amount must be greater than zero\");\r\n        require(balanceOf[msg.sender] >= _amount, \"Insufficient balance to reward\");\r\n        \r\n        balanceOf[msg.sender] -= _amount;\r\n        balanceOf[_student] += _amount;\r\n        \r\n        emit Reward(msg.sender, _student, _amount, _reason);\r\n        emit Transfer(msg.sender, _student, _amount);\r\n    }\r\n    \r\n    function redeemTokens(address _student, uint256 _amount) external onlyCanteen {\r\n        require(balanceOf[_student] >= _amount, \"Student has insufficient balance\");\r\n        balanceOf[_student] -= _amount;\r\n        balanceOf[msg.sender] += _amount;\r\n        emit Redeem(_student, msg.sender, _amount);\r\n        emit Transfer(_student, msg.sender, _amount);\r\n    }\r\n    \r\n    function slashTokens(address _student, uint256 _amount, string memory _reason) external onlyAdmin {\r\n        require(balanceOf[_student] >= _amount, \"Student has insufficient balance\");\r\n        balanceOf[_student] -= _amount;\r\n        totalSupply -= _amount;\r\n        emit Slash(_student, _amount, _reason);\r\n        emit Transfer(_student, address(0), _amount);\r\n    }\r\n    \r\n    function transfer(address _to, uint256 _amount) external returns (bool) {\r\n        require(balanceOf[msg.sender] >= _amount, \"Insufficient balance\");\r\n        balanceOf[msg.sender] -= _amount;\r\n        balanceOf[_to] += _amount;\r\n        emit Transfer(msg.sender, _to, _amount);\r\n        return true;\r\n    }\r\n}\r\n",
  "sourcePath": "C:\\Users\\ashfa\\Documents\\Projects2\\Blockchain-Project\\contracts\\CampusCoin.sol",
  "compiler": {
    "name": "solc",
    "version": "0.8.0+commit.c7dfd78e.Emscripten.clang"
  },
  "schemaVersion": "3.4.16",
  "updatedAt": "2025-04-14T13:22:43.339Z",
  "networkType": "ethereum",
  "devdoc": {
    "kind": "dev",
    "methods": {},
    "version": 1
  },
  "userdoc": {
    "kind": "user",
    "methods": {},
    "version": 1
  }
}